:100000000C945C000C9479000C9479000C947900A9
:100010000C9479000C9479000C9479000C9479007C
:100020000C9479000C9479000C9479000C9479006C
:100030000C9479000C9479000C9479000C9479005C
:100040000C94E6000C9479000C9479000C947900DF
:100050000C9479000C9479000C9479000C9479003C
:100060000C9479000C947900000000080002010053
:100070000003040700000000000000000000000072
:10008000250028002B0000000000240027002A0083
:10009000040404040404040402020202020203032E
:1000A0000303030301020408102040800102040836
:1000B000102001020408102011241FBECFEFD8E049
:1000C000DEBFCDBF11E0A0E0B1E0E8ECF3E002C09C
:1000D00005900D92A036B107D9F721E0A0E6B1E076
:1000E00001C01D92AB36B207E1F70E9430010C94BB
:1000F000E2010C94000090E0FC01EC55FF4F2491CC
:1001000080579F4FFC018491882399F090E0880FDD
:10011000991FFC01EA57FF4FA591B491FC01E458E7
:10012000FF4F859194918FB7F894EC91E22BEC936B
:100130008FBF089590E0FC01E859FF4F2491FC0126
:10014000EC55FF4F3491FC01E057FF4FE491EE2353
:10015000C9F0222339F0233001F1A8F4213019F13C
:10016000223029F1F0E0EE0FFF1FE458FF4FA59178
:10017000B4918FB7F894EC91611126C030953E236D
:100180003C938FBF08952730A9F02830C9F0243060
:1001900049F7809180008F7D03C0809180008F7728
:1001A00080938000DFCF84B58F7784BDDBCF84B5AB
:1001B0008F7DFBCF8091B0008F778093B000D2CF3E
:1001C0008091B0008F7DF9CF3E2BDACF1F920F9236
:1001D0000FB60F9211242F933F938F939F93AF935A
:1001E000BF938091670190916801A0916901B091DE
:1001F0006A013091660123E0230F2D3758F50196EF
:10020000A11DB11D20936601809367019093680141
:10021000A0936901B0936A0180916201909163019A
:10022000A0916401B09165010196A11DB11D80935B
:10023000620190936301A0936401B0936501BF9143
:10024000AF919F918F913F912F910F900FBE0F9083
:100250001F90189526E8230F0296A11DB11DD2CF3D
:10026000789484B5826084BD84B5816084BD85B591
:10027000826085BD85B5816085BD80916E0081609D
:1002800080936E0010928100809181008260809343
:100290008100809181008160809381008091800045
:1002A0008160809380008091B10084608093B10070
:1002B0008091B00081608093B00080917A0084606A
:1002C00080937A0080917A00826080937A00809196
:1002D0007A00816080937A0080917A0080688093B0
:1002E0007A001092C10000E411E0C0E5D1E08881FD
:1002F00022960E947B00F80180810E5F1F4F0E94B2
:100300007B00F1E0C036DF0791F740E0E42E40E0EB
:10031000F42EC0E5D1E08881229660E00E949A0028
:1003200081E0C036D807B9F7C0916001D091610172
:10033000FE01EE0FFF1FE05CFE4F61E080810E9436
:100340009A002196C830D105C1F1D0936101C093C4
:1003500060010091600110916101F801EE0FFF1F33
:10036000E05CFE4F60E080810E949A0093E0000F05
:10037000111F9A95E1F720E5C22E21E0D22ED0E0A0
:10038000C0E0F6018081F2E0CF0ED11CFE01E00F4B
:10039000F11FE050FF4F908161E0911101C060E0DA
:1003A0000E949A002196C830D10559F7E114F10452
:1003B00009F4AFCF0E940000ACCF109261011092FF
:0803C0006001C7CFF894FFCFE4
:1003C8000101000000000001000000000000000022
:1003D8000000000000000000010000000000000014
:1003E8000000000000000000000000000000000005
:1003F80000000000000000000100000000000000F4
:100408000A000B000C000D000E000F001000110078
:1004180002000300040005000600070008000900A8
:00000001FF
