:100000000C9462000C948A000C948A000C948A0070
:100010000C948A000C948A000C948A000C948A0038
:100020000C948A000C948A000C948A000C948A0028
:100030000C948A000C948A000C948A000C948A0018
:100040000C94F9040C948A000C94C7040C94A10439
:100050000C948A000C948A000C948A000C948A00F8
:100060000C948A000C948A000000000024002700F1
:100070002A0000000000250028002B0000000000DE
:1000800023002600290004040404040404040202DA
:100090000202020203030303030301020408102007
:1000A0004080010204081020010204081020000012
:1000B0000008000201000003040700000000000027
:1000C0000000430511241FBECFEFD8E0DEBFCDBF37
:1000D00011E0A0E0B1E0EEEAFEE002C005900D9272
:1000E000AA3AB107D9F722E0AAEAB1E001C01D920D
:1000F000AA36B207E1F710E0C2E6D0E004C02197CB
:10010000FE010E944F07C136D107C9F70E948D0535
:100110000C9455070C940000AF92BF92CF92DF92DF
:10012000EF92FF920F931F93CF93DF936C017B01AC
:100130008B01040F151FEB015E01AE18BF08C0173D
:10014000D10759F06991D601ED91FC910190F081B0
:10015000E02DC6010995892B79F7C501DF91CF9173
:100160001F910F91FF90EF90DF90CF90BF90AF90D5
:100170000895FC01538D448D252F30E0842F90E0AD
:10018000821B930B541710F0CF9608950197089592
:10019000FC01918D828D981761F0A28DAE0FBF2F5B
:1001A000B11D5D968C91928D9F5F9F73928F90E0B1
:1001B00008958FEF9FEF0895FC01918D828D981720
:1001C00031F0828DE80FF11D858D90E008958FEF5D
:1001D0009FEF0895FC01918D228D892F90E0805C26
:1001E0009F4F821B91098F739927089585EB91E0AA
:1001F0000E94EA0021E0892B09F420E0822F089573
:1002000080E090E0892B29F00E94F60081110C9487
:1002100000000895FC01A48DA80FB92FB11DA35AA9
:10022000BF4F2C91848D90E001968F739927848F16
:10023000A689B7892C93A089B1898C918370806439
:100240008C93938D848D981306C00288F389E02DDA
:1002500080818F7D80830895EF92FF920F931F938B
:10026000CF93DF93EC0181E0888F9B8D8C8D981369
:100270001AC0E889F989808185FF15C09FB7F89475
:10028000EE89FF896083E889F989808183708064C1
:1002900080839FBF81E090E0DF91CF911F910F910C
:1002A000FF90EF900895F62E0B8D10E00F5F1F4F1B
:1002B0000F731127E02E8C8D8E110CC00FB607FC2A
:1002C000FACFE889F989808185FFF5CFCE010E94B8
:1002D0000A01F1CFEB8DEC0FFD2FF11DE35AFF4F1B
:1002E000F0829FB7F8940B8FEA89FB898081806246
:1002F000CFCFCF93DF93EC01888D8823B9F0AA8903
:10030000BB89E889F9898C9185FD03C0808186FDD0
:100310000DC00FB607FCF7CF8C9185FFF2CF80811F
:1003200085FFEDCFCE010E940A01E9CFDF91CF9189
:100330000895833081F028F4813099F08230A9F05B
:1003400008958730A9F08830C9F08430B1F48091E5
:1003500080008F7D03C0809180008F778093800024
:10036000089584B58F7784BD089584B58F7DFBCFC4
:100370008091B0008F778093B00008958091B00095
:100380008F7DF9CFCF93DF93282F30E0F901E2552D
:10039000FF4F8491F901E656FF4FD491F901EA57D6
:1003A000FF4FC491CC23A1F081110E949901EC2F41
:1003B000F0E0EE0FFF1FE458FF4FA591B491EC91D0
:1003C000ED2381E090E009F480E0DF91CF91089582
:1003D00080E090E0FACF1F93CF93DF93282F30E097
:1003E000F901E255FF4F8491F901E656FF4FD49190
:1003F000F901EA57FF4FC491CC23A9F0162F8111C0
:100400000E949901EC2FF0E0EE0FFF1FEE58FF4F16
:10041000A591B4918FB7F894EC91111108C0D095C3
:10042000DE23DC938FBFDF91CF911F910895DE2BE8
:10043000F8CFCF93DF9390E0FC01E656FF4F249175
:100440008A579F4FFC0184918823D1F090E0880F58
:10045000991FFC01E859FF4FA591B491FC01EE589A
:10046000FF4FC591D49161110EC09FB7F8948C9144
:10047000E22FE0958E238C932881E223E8839FBFAF
:10048000DF91CF9108958FB7F894EC91E22BEC9324
:100490008FBFF6CF3FB7F8948091AF019091B00134
:1004A000A091B101B091B20126B5A89B05C02F3F24
:1004B00019F00196A11DB11D3FBFBA2FA92F982F8A
:1004C0008827BC01CD01620F711D811D911D42E085
:1004D000660F771F881F991F4A95D1F708958F924D
:1004E0009F92AF92BF92CF92DF92EF92FF924B0119
:1004F0005C010E944A026B017C010E944A026C1955
:100500007D098E099F09683E734081059105A8F316
:1005100021E0821A9108A108B10888EEC80E83E094
:10052000D81EE11CF11C81149104A104B10429F727
:10053000FF90EF90DF90CF90BF90AF909F908F9003
:100540000895089590E080E00895CF93DF93EC0143
:1005500060E08E810E94EB0161E08E810E94EB01E0
:1005600060E08E810E94EB018BE891E00197F1F74A
:10057000DF91CF910895CF92DF92EF92FF920F9388
:100580001F93CF93DF936C017C0187E0E80EF11C91
:10059000D0E0C0E0062F10E0B8010C2E02C0759527
:1005A00067950A94E2F76170F70181917F010E94DB
:1005B000EB012196C430D10579F7C601DF91CF91C7
:1005C0001F910F91FF90EF90DF90CF900C94A502B8
:1005D000CF92DF92EF92FF920F931F93CF93DF930F
:1005E000EC01F62E642F8C810E94EB018D818F3FF0
:1005F00019F060E00E94EB010F2D10E08F8584FF61
:1006000025C06E0187E0C80ED11CF12CE12CB80189
:100610000E2C02C0759567950A94E2F76170F60199
:1006200081916F010E94EB01FFEFEF1AFF0A88E052
:10063000E816F10461F7CE01DF91CF911F910F9180
:10064000FF90EF90DF90CF900C94A502B80184E06A
:10065000759567958A95E1F7CE010E94BB026F2DD3
:10066000CE01DF91CF911F910F91FF90EF90DF901E
:10067000CF900C94BB0240E0682F82E592E00C948E
:10068000E802CF93DF93823029F490916102986061
:1006900090936102809365021092660280E48093D9
:1006A000670280E18093680280E58093690261E0DF
:1006B000809156020E941902809157028F3F19F0D3
:1006C00061E00E94190261E0809158020E941902C3
:1006D000C2E5D2E09E01225532408091610284FD44
:1006E0000BC084E090E021962817390744F461E0BC
:1006F0008E810E941902EECF88E090E0F4CF8BE368
:100700009DE00197F1F760E0809156020E94EB01B5
:1007100060E0809158020E94EB01809157028F3F68
:1007200019F060E00E94EB018091610284FD39C004
:1007300063E082E592E00E94BB02CBE4D6E4CE0106
:100740000197F1F763E082E592E00E94BB022197F6
:10075000F1F763E082E592E00E94BB0283E592E05C
:100760000197F1F762E082E592E00E94BB0280917E
:10077000610280620E943B0384E0809362028CE00D
:100780000E943B0381E00E943B038BE39FE10197C2
:10079000F1F782E08093630286E0DF91CF910C94C1
:1007A0003B0380620E943B038BE496E40197F1F7E0
:1007B0008091610280620E943B0383E592E0019791
:1007C000F1F78091610280620E943B03D0CF90914B
:1007D0006502891710F08FEF890FE82FF0E0EE5ACD
:1007E000FD4F848980680C943B0341E00E94E8023D
:1007F00081E090E00895FB0101900020E9F7319736
:10080000AF01461B570BDC01ED91FC910280F38197
:10081000E02D09948F929F92AF92BF92EF92FF9238
:100820000F931F93CF93DF93CDB7DEB7A1970FB68A
:10083000F894DEBF0FBECDBF7C01FA01CB0119A237
:10084000223008F42AE08E010F5D1F4F822E912C7A
:10085000B12CA12CBF01A50194010E942D07F90123
:10086000CA016A300CF5605DD8016E938D01232BAF
:10087000242B252B79F790E080E0109721F0BD0123
:10088000C7010E94FB03A1960FB6F894DEBF0FBE0E
:10089000CDBFDF91CF911F910F91FF90EF90BF904F
:1008A000AF909F908F900895695CDECFCF92DF92DA
:1008B000EF92FF92CF93DF936C01990FEE08FF0840
:1008C000F7FE23C06DE285EB91E00E942C01EC0164
:1008D00044275527BA014C195D096E097F092AE0A2
:1008E00085EB91E00E940A04C80FD91F64E271E011
:1008F00085EB91E00E94FB038C0F9D1FDF91CF9150
:10090000FF90EF90DF90CF9008952AE0B701A60105
:1009100085EB91E00E940A04EC01E8CFCF93DF93CE
:10092000BC0185EB91E00E94FB03EC0164E271E005
:1009300085EB91E00E94FB038C0F9D1FDF91CF910F
:1009400008951F920F920FB60F9211242F933F9389
:100950004F935F936F937F938F939F93AF93BF93C7
:10096000EF93FF9385EB91E00E940A01FF91EF91D5
:10097000BF91AF919F918F917F916F915F914F91B7
:100980003F912F910F900FBE0F901F9018951F92BF
:100990000F920FB60F9211242F938F939F93EF9383
:1009A000FF93E091C501F091C6018081E091CB01F8
:1009B000F091CC0182FD1BC090818091CE018F5FB0
:1009C0008F732091CF01821741F0E091CE01F0E0CA
:1009D000EB54FE4F958F8093CE01FF91EF919F9145
:1009E0008F912F910F900FBE0F901F9018958081BF
:1009F000F4CF1F920F920FB60F9211242F933F93B3
:100A00008F939F93AF93BF938091AB019091AC0173
:100A1000A091AD01B091AE013091AA0123E0230F66
:100A20002D3758F50196A11DB11D2093AA01809381
:100A3000AB019093AC01A093AD01B093AE01809156
:100A4000AF019091B001A091B101B091B2010196B6
:100A5000A11DB11D8093AF019093B001A093B1018E
:100A6000B093B201BF91AF919F918F913F912F9120
:100A70000F900FBE0F901F90189526E8230F029637
:100A8000A11DB11DD2CFE5EBF1E01382128288EEF9
:100A900093E0A0E0B0E084839583A683B7838AE0E7
:100AA00091E09183808385EC90E09587848784EC46
:100AB00090E09787868780EC90E0918B808B81EC2B
:100AC00090E0938B828B82EC90E0958B848B86EC0C
:100AD00090E0978B868B118E128E138E148EE2E52A
:100AE000F2E0138212828CE191E09183808388E0AE
:100AF00084838FEF858387E0868386E0878385E024
:100B0000808784E0818783E0828713861486158638
:100B10001686178681E00C944103789484B5826030
:100B200084BD84B5816084BD85B5826085BD85B591
:100B3000816085BD80916E00816080936E0010920F
:100B4000810080918100826080938100809181008A
:100B5000816080938100809180008160809380001B
:100B60008091B10084608093B1008091B000816079
:100B70008093B00080917A00846080937A008091A5
:100B80007A00826080937A0080917A0081608093FD
:100B90007A0080917A00806880937A001092C10078
:100BA000E091C501F091C60182E08083E091C1012E
:100BB000F091C2011082E091C301F091C4018FEC69
:100BC00080831092CD01E091C901F091CA0186E0C5
:100BD0008083E091C701F091C801808180618083AA
:100BE000E091C701F091C801808188608083E09125
:100BF000C701F091C801808180688083E091C701BE
:100C0000F091C80180818F7D808361E08DE00E943A
:100C1000190260E08CE00E94190260E08BE00E9403
:100C2000190261E08AE00E94190261E089E00E94F5
:100C3000190260E08FE00E94190261E082E00E94E8
:100C4000190282E00E94410380E00E94E70367E20C
:100C500071E082E592E00E94FB0312E4C0E0D0E084
:100C60008CE00E94C20190930501809304018BE007
:100C70000E94C201909303018093020110937C00B3
:100C800080917A00806480937A0080917A0086FD5A
:100C9000FCCF909178008091790089279827892747
:100CA000909301018093000102979093B401809387
:100CB000B30182E391E00E948E048091040190913F
:100CC00005010E9456048DE391E00E948E048091FC
:100CD0000201909103010E9456048BE491E00E946E
:100CE0008E0480910001909101010E94560481E0E0
:100CF0000E94E7036BE571E082E592E00E94FB034E
:100D0000C090B301D090B4010D2C000CEE08FF0888
:100D10002AE0B701A601F7FE0EC041E06DE282E5D0
:100D200092E00E94E80244275527BA014C195D0958
:100D30006E097F092AE082E592E00E940A0467E6D4
:100D400071E082E592E00E94FB0364E670E080E0DF
:100D500090E00E946F02809104019091050101973B
:100D600009F053C061E08DE00E94EB0181E00E9438
:100D7000E70369E671E082E592E00E94FB0364E626
:100D800070E080E090E00E946F028FE00E94C2015C
:100D9000892B09F045C060E082E00E94EB01809160
:100DA0000001909101014F970CF44EC08091020117
:100DB00090910301019709F047C061E08AE00E9429
:100DC000EB0160E089E00E94EB0181E00E94E70313
:100DD0006BE971E082E592E00E94FB0364E670E05B
:100DE00080E090E00E946F0268EC70E080E090E0AC
:100DF0000E946F02209709F433CF0E94F6008823E7
:100E000009F42ECF0E9400002BCF60E08DE00E94FD
:100E1000EB016BE771E082E592E00E94FB03B5CF46
:100E200061E082E00E94EB0181E00E94E7036CE850
:100E300071E082E592E00E94FB0364E670E080E0EE
:100E400090E00E946F02ABCF60E08AE00E94EB016D
:100E500060E089E00E94EB01C7CFA1E21A2EAA1B35
:100E6000BB1BFD010DC0AA1FBB1FEE1FFF1FA2175A
:100E7000B307E407F50720F0A21BB30BE40BF50B57
:100E8000661F771F881F991F1A9469F760957095E0
:100E9000809590959B01AC01BD01CF010895EE0FA7
:0E0EA000FF1F0590F491E02D0994F894FFCF08
:100EAE0002000B000C00000000002C018C00B900A9
:100EBE007901EA00C800DC0000000000F5038C0098
:100ECE00A202A1020D0A00534D41525420524F4F1F
:100EDE004D004761732073656E736F72004D4F54F2
:100EEE00494F4E2073656E736F7200526F6F6D2097
:100EFE0074656D706572747572650054454D504120
:100F0E0054555245203A004300474153204C454129
:100F1E004B4147452020202020200020202020204B
:100F2E002020202020202020202020004C4947482F
:100F3E0054204953204F4E2020200046414E204938
:0A0F4E0053204F4E202020202000E9
:107E0000112484B714BE81FFF0D085E080938100F7
:107E100082E08093C00088E18093C10086E0809377
:107E2000C20080E18093C4008EE0C9D0259A86E02C
:107E300020E33CEF91E0309385002093840096BBD3
:107E4000B09BFECF1D9AA8958150A9F7CC24DD24C4
:107E500088248394B5E0AB2EA1E19A2EF3E0BF2EE7
:107E6000A2D0813461F49FD0082FAFD0023811F036
:107E7000013811F484E001C083E08DD089C08234E0
:107E800011F484E103C0853419F485E0A6D080C0E4
:107E9000853579F488D0E82EFF2485D0082F10E0AE
:107EA000102F00270E291F29000F111F8ED06801E7
:107EB0006FC0863521F484E090D080E0DECF843638
:107EC00009F040C070D06FD0082F6DD080E0C81688
:107ED00080E7D80618F4F601B7BEE895C0E0D1E017
:107EE00062D089930C17E1F7F0E0CF16F0E7DF06D8
:107EF00018F0F601B7BEE89568D007B600FCFDCFD4
:107F0000A601A0E0B1E02C9130E011968C91119780
:107F100090E0982F8827822B932B1296FA010C0160
:107F200087BEE89511244E5F5F4FF1E0A038BF0790
:107F300051F7F601A7BEE89507B600FCFDCF97BE46
:107F4000E89526C08437B1F42ED02DD0F82E2BD052
:107F50003CD0F601EF2C8F010F5F1F4F84911BD097
:107F6000EA94F801C1F70894C11CD11CFA94CF0C13
:107F7000D11C0EC0853739F428D08EE10CD085E9AC
:107F80000AD08FE07ACF813511F488E018D01DD067
:107F900080E101D065CF982F8091C00085FFFCCF94
:107FA0009093C60008958091C00087FFFCCF809118
:107FB000C00084FD01C0A8958091C6000895E0E648
:107FC000F0E098E1908380830895EDDF803219F02E
:107FD00088E0F5DFFFCF84E1DECF1F93182FE3DFCA
:107FE0001150E9F7F2DF1F91089580E0E8DFEE27F6
:047FF000FF270994CA
:027FFE00040479
:0400000300007E007B
:00000001FF
